{
  "contractName": "Fogchain_2",
  "abi": [
    {
      "constant": true,
      "inputs": [],
      "name": "TIME_START",
      "outputs": [
        {
          "name": "",
          "type": "uint256"
        }
      ],
      "payable": false,
      "stateMutability": "view",
      "type": "function"
    },
    {
      "constant": true,
      "inputs": [],
      "name": "POWER_STATION",
      "outputs": [
        {
          "name": "",
          "type": "uint8"
        }
      ],
      "payable": false,
      "stateMutability": "view",
      "type": "function"
    },
    {
      "constant": false,
      "inputs": [],
      "name": "kill",
      "outputs": [],
      "payable": false,
      "stateMutability": "nonpayable",
      "type": "function"
    },
    {
      "constant": true,
      "inputs": [
        {
          "name": "",
          "type": "uint256"
        }
      ],
      "name": "prosumer_addrs",
      "outputs": [
        {
          "name": "",
          "type": "address"
        }
      ],
      "payable": false,
      "stateMutability": "view",
      "type": "function"
    },
    {
      "constant": true,
      "inputs": [],
      "name": "RETAILER",
      "outputs": [
        {
          "name": "",
          "type": "uint8"
        }
      ],
      "payable": false,
      "stateMutability": "view",
      "type": "function"
    },
    {
      "constant": true,
      "inputs": [
        {
          "name": "",
          "type": "uint256"
        }
      ],
      "name": "consumer_addrs",
      "outputs": [
        {
          "name": "",
          "type": "address"
        }
      ],
      "payable": false,
      "stateMutability": "view",
      "type": "function"
    },
    {
      "constant": true,
      "inputs": [],
      "name": "latest_price",
      "outputs": [
        {
          "name": "",
          "type": "uint256"
        }
      ],
      "payable": false,
      "stateMutability": "view",
      "type": "function"
    },
    {
      "constant": true,
      "inputs": [
        {
          "name": "",
          "type": "uint256"
        }
      ],
      "name": "power_station_addrs",
      "outputs": [
        {
          "name": "",
          "type": "address"
        }
      ],
      "payable": false,
      "stateMutability": "view",
      "type": "function"
    },
    {
      "constant": true,
      "inputs": [],
      "name": "SEQUENCE_INV",
      "outputs": [
        {
          "name": "",
          "type": "uint256"
        }
      ],
      "payable": false,
      "stateMutability": "view",
      "type": "function"
    },
    {
      "constant": true,
      "inputs": [],
      "name": "PROSUMER",
      "outputs": [
        {
          "name": "",
          "type": "uint8"
        }
      ],
      "payable": false,
      "stateMutability": "view",
      "type": "function"
    },
    {
      "constant": true,
      "inputs": [],
      "name": "CONSUMER",
      "outputs": [
        {
          "name": "",
          "type": "uint8"
        }
      ],
      "payable": false,
      "stateMutability": "view",
      "type": "function"
    },
    {
      "constant": true,
      "inputs": [
        {
          "name": "",
          "type": "uint256"
        }
      ],
      "name": "retailer_addrs",
      "outputs": [
        {
          "name": "",
          "type": "address"
        }
      ],
      "payable": false,
      "stateMutability": "view",
      "type": "function"
    },
    {
      "constant": true,
      "inputs": [],
      "name": "UNRENEWABLE_PRICE",
      "outputs": [
        {
          "name": "",
          "type": "uint256"
        }
      ],
      "payable": false,
      "stateMutability": "view",
      "type": "function"
    },
    {
      "constant": true,
      "inputs": [],
      "name": "last_settlement",
      "outputs": [
        {
          "name": "",
          "type": "uint256"
        }
      ],
      "payable": false,
      "stateMutability": "view",
      "type": "function"
    },
    {
      "constant": true,
      "inputs": [
        {
          "name": "",
          "type": "address"
        }
      ],
      "name": "account_map",
      "outputs": [
        {
          "name": "role",
          "type": "uint8"
        },
        {
          "name": "consumption",
          "type": "uint256"
        },
        {
          "name": "output",
          "type": "uint256"
        },
        {
          "name": "bill",
          "type": "int256"
        }
      ],
      "payable": false,
      "stateMutability": "view",
      "type": "function"
    },
    {
      "constant": true,
      "inputs": [],
      "name": "RENEWABLE_PRICE",
      "outputs": [
        {
          "name": "",
          "type": "uint256"
        }
      ],
      "payable": false,
      "stateMutability": "view",
      "type": "function"
    },
    {
      "inputs": [
        {
          "name": "seq_blk_interval",
          "type": "uint256"
        },
        {
          "name": "renew_price",
          "type": "uint256"
        },
        {
          "name": "unre_price",
          "type": "uint256"
        }
      ],
      "payable": false,
      "stateMutability": "nonpayable",
      "type": "constructor"
    },
    {
      "anonymous": false,
      "inputs": [
        {
          "indexed": true,
          "name": "seqnum",
          "type": "uint256"
        },
        {
          "indexed": true,
          "name": "cons_addr",
          "type": "address"
        },
        {
          "indexed": false,
          "name": "cons",
          "type": "uint256"
        }
      ],
      "name": "ConsEvent",
      "type": "event"
    },
    {
      "anonymous": false,
      "inputs": [
        {
          "indexed": true,
          "name": "seqnum",
          "type": "uint256"
        },
        {
          "indexed": true,
          "name": "prod_addr",
          "type": "address"
        },
        {
          "indexed": false,
          "name": "prod",
          "type": "uint256"
        }
      ],
      "name": "ProdEvent",
      "type": "event"
    },
    {
      "anonymous": false,
      "inputs": [
        {
          "indexed": true,
          "name": "seqnum",
          "type": "uint256"
        },
        {
          "indexed": true,
          "name": "sell_addr",
          "type": "address"
        },
        {
          "indexed": false,
          "name": "sold",
          "type": "uint256"
        }
      ],
      "name": "SellEvent",
      "type": "event"
    },
    {
      "anonymous": false,
      "inputs": [
        {
          "indexed": true,
          "name": "seqnum",
          "type": "uint256"
        },
        {
          "indexed": true,
          "name": "role",
          "type": "uint256"
        },
        {
          "indexed": true,
          "name": "account_addr",
          "type": "address"
        },
        {
          "indexed": false,
          "name": "consumption",
          "type": "uint256"
        },
        {
          "indexed": false,
          "name": "output",
          "type": "uint256"
        },
        {
          "indexed": false,
          "name": "expense",
          "type": "int256"
        }
      ],
      "name": "SettleEvent",
      "type": "event"
    },
    {
      "anonymous": false,
      "inputs": [
        {
          "indexed": true,
          "name": "seqnum",
          "type": "uint256"
        },
        {
          "indexed": true,
          "name": "ps_addr",
          "type": "address"
        },
        {
          "indexed": false,
          "name": "generation",
          "type": "uint256"
        }
      ],
      "name": "PsGenEvent",
      "type": "event"
    },
    {
      "anonymous": false,
      "inputs": [
        {
          "indexed": true,
          "name": "seqnum",
          "type": "uint256"
        },
        {
          "indexed": false,
          "name": "c_price",
          "type": "uint256"
        },
        {
          "indexed": false,
          "name": "ps_price",
          "type": "uint256"
        },
        {
          "indexed": false,
          "name": "bs_price",
          "type": "uint256"
        },
        {
          "indexed": false,
          "name": "p_price",
          "type": "uint256"
        }
      ],
      "name": "PriceEvent",
      "type": "event"
    },
    {
      "constant": true,
      "inputs": [],
      "name": "get_current_seqnum",
      "outputs": [
        {
          "name": "seqnum",
          "type": "uint256"
        }
      ],
      "payable": false,
      "stateMutability": "view",
      "type": "function"
    },
    {
      "constant": true,
      "inputs": [],
      "name": "get_last_settlement",
      "outputs": [
        {
          "name": "seqnum",
          "type": "uint256"
        }
      ],
      "payable": false,
      "stateMutability": "view",
      "type": "function"
    },
    {
      "constant": true,
      "inputs": [
        {
          "name": "account",
          "type": "address"
        }
      ],
      "name": "get_bill",
      "outputs": [
        {
          "name": "expense",
          "type": "int256"
        }
      ],
      "payable": false,
      "stateMutability": "view",
      "type": "function"
    },
    {
      "constant": false,
      "inputs": [],
      "name": "register_consumer",
      "outputs": [],
      "payable": false,
      "stateMutability": "nonpayable",
      "type": "function"
    },
    {
      "constant": false,
      "inputs": [],
      "name": "register_prosumer",
      "outputs": [],
      "payable": false,
      "stateMutability": "nonpayable",
      "type": "function"
    },
    {
      "constant": false,
      "inputs": [],
      "name": "register_battery_station",
      "outputs": [],
      "payable": false,
      "stateMutability": "nonpayable",
      "type": "function"
    },
    {
      "constant": false,
      "inputs": [],
      "name": "register_power_station",
      "outputs": [],
      "payable": false,
      "stateMutability": "nonpayable",
      "type": "function"
    },
    {
      "constant": false,
      "inputs": [
        {
          "name": "amount",
          "type": "uint256"
        }
      ],
      "name": "post_cons",
      "outputs": [
        {
          "name": "seqnum",
          "type": "uint256"
        },
        {
          "name": "cons",
          "type": "uint256"
        }
      ],
      "payable": false,
      "stateMutability": "nonpayable",
      "type": "function"
    },
    {
      "constant": false,
      "inputs": [
        {
          "name": "amount",
          "type": "uint256"
        }
      ],
      "name": "post_prod",
      "outputs": [
        {
          "name": "seqnum",
          "type": "uint256"
        },
        {
          "name": "prod",
          "type": "uint256"
        }
      ],
      "payable": false,
      "stateMutability": "nonpayable",
      "type": "function"
    },
    {
      "constant": false,
      "inputs": [
        {
          "name": "amount",
          "type": "uint256"
        }
      ],
      "name": "post_sell",
      "outputs": [
        {
          "name": "seqnum",
          "type": "uint256"
        },
        {
          "name": "sold",
          "type": "uint256"
        }
      ],
      "payable": false,
      "stateMutability": "nonpayable",
      "type": "function"
    },
    {
      "constant": false,
      "inputs": [
        {
          "name": "amount",
          "type": "uint256"
        }
      ],
      "name": "post_ps_gen",
      "outputs": [
        {
          "name": "seqnum",
          "type": "uint256"
        },
        {
          "name": "generation",
          "type": "uint256"
        }
      ],
      "payable": false,
      "stateMutability": "nonpayable",
      "type": "function"
    },
    {
      "constant": false,
      "inputs": [],
      "name": "settle",
      "outputs": [
        {
          "name": "seqnum",
          "type": "uint256"
        }
      ],
      "payable": false,
      "stateMutability": "nonpayable",
      "type": "function"
    }
  ],
  "bytecode": "0x608060405234801561001057600080fd5b50604051606080612a90833981018060405281019080805190602001909291908051906020019092919080519060200190929190505050336000806101000a81548173ffffffffffffffffffffffffffffffffffffffff021916908373ffffffffffffffffffffffffffffffffffffffff160217905550826002819055504260018190555081600381905550806004819055506002600454600354018115156100b557fe5b0460058190555060006006819055505050506129ba806100d66000396000f30060806040526004361061016a576000357c0100000000000000000000000000000000000000000000000000000000900463ffffffff1680630bf05e551461016f5780630f76214f1461018657806311da60b4146101b1578063120d9a68146101dc5780632468d3c11461020d57806341c0e1b51461023857806346f592ec1461024f578063535de5e9146102bc5780635498b654146102ed5780636839b4491461035a5780637942b17e146103855780637aa74ce7146103f2578063880c21fb1461043a57806394561a17146104655780639a7f1822146104965780639c896d23146104ad5780639e9388f0146104de578063b0983d421461054b578063b7376248146105a2578063c0ccde67146105cd578063cd23ec33146105e4578063d40dfda31461060f578063d52320031461063a578063e28913b314610682578063e77986dc146106ca578063edc794dc14610712578063fb415e9214610729578063fff27d711461079b575b600080fd5b34801561017b57600080fd5b506101846107c6565b005b34801561019257600080fd5b5061019b610951565b6040518082815260200191505060405180910390f35b3480156101bd57600080fd5b506101c6610957565b6040518082815260200191505060405180910390f35b3480156101e857600080fd5b506101f1611909565b604051808260ff1660ff16815260200191505060405180910390f35b34801561021957600080fd5b5061022261190e565b6040518082815260200191505060405180910390f35b34801561024457600080fd5b5061024d61192c565b005b34801561025b57600080fd5b5061027a600480360381019080803590602001909291905050506119bd565b604051808273ffffffffffffffffffffffffffffffffffffffff1673ffffffffffffffffffffffffffffffffffffffff16815260200191505060405180910390f35b3480156102c857600080fd5b506102d16119fb565b604051808260ff1660ff16815260200191505060405180910390f35b3480156102f957600080fd5b5061031860048036038101908080359060200190929190505050611a00565b604051808273ffffffffffffffffffffffffffffffffffffffff1673ffffffffffffffffffffffffffffffffffffffff16815260200191505060405180910390f35b34801561036657600080fd5b5061036f611a3e565b6040518082815260200191505060405180910390f35b34801561039157600080fd5b506103b060048036038101908080359060200190929190505050611a44565b604051808273ffffffffffffffffffffffffffffffffffffffff1673ffffffffffffffffffffffffffffffffffffffff16815260200191505060405180910390f35b3480156103fe57600080fd5b5061041d60048036038101908080359060200190929190505050611a82565b604051808381526020018281526020019250505060405180910390f35b34801561044657600080fd5b5061044f611cfa565b6040518082815260200191505060405180910390f35b34801561047157600080fd5b5061047a611d00565b604051808260ff1660ff16815260200191505060405180910390f35b3480156104a257600080fd5b506104ab611d05565b005b3480156104b957600080fd5b506104c2611e90565b604051808260ff1660ff16815260200191505060405180910390f35b3480156104ea57600080fd5b5061050960048036038101908080359060200190929190505050611e95565b604051808273ffffffffffffffffffffffffffffffffffffffff1673ffffffffffffffffffffffffffffffffffffffff16815260200191505060405180910390f35b34801561055757600080fd5b5061058c600480360381019080803573ffffffffffffffffffffffffffffffffffffffff169060200190929190505050611ed3565b6040518082815260200191505060405180910390f35b3480156105ae57600080fd5b506105b7611f1f565b6040518082815260200191505060405180910390f35b3480156105d957600080fd5b506105e2611f29565b005b3480156105f057600080fd5b506105f96120b4565b6040518082815260200191505060405180910390f35b34801561061b57600080fd5b506106246120ba565b6040518082815260200191505060405180910390f35b34801561064657600080fd5b50610665600480360381019080803590602001909291905050506120c0565b604051808381526020018281526020019250505060405180910390f35b34801561068e57600080fd5b506106ad60048036038101908080359060200190929190505050612338565b604051808381526020018281526020019250505060405180910390f35b3480156106d657600080fd5b506106f5600480360381019080803590602001909291905050506125ae565b604051808381526020018281526020019250505060405180910390f35b34801561071e57600080fd5b50610727612826565b005b34801561073557600080fd5b5061076a600480360381019080803573ffffffffffffffffffffffffffffffffffffffff16906020019092919050505061294b565b604051808560ff1660ff16815260200184815260200183815260200182815260200194505050505060405180910390f35b3480156107a757600080fd5b506107b0612988565b6040518082815260200191505060405180910390f35b6000600760003373ffffffffffffffffffffffffffffffffffffffff1673ffffffffffffffffffffffffffffffffffffffff16815260200190815260200160002060000160009054906101000a900460ff1660ff1614151561082757600080fd5b6003600760003373ffffffffffffffffffffffffffffffffffffffff1673ffffffffffffffffffffffffffffffffffffffff16815260200190815260200160002060000160006101000a81548160ff021916908360ff16021790555060093390806001815401808255809150509060018203906000526020600020016000909192909190916101000a81548173ffffffffffffffffffffffffffffffffffffffff021916908373ffffffffffffffffffffffffffffffffffffffff16021790555050600b3390806001815401808255809150509060018203906000526020600020016000909192909190916101000a81548173ffffffffffffffffffffffffffffffffffffffff021916908373ffffffffffffffffffffffffffffffffffffffff16021790555050565b60015481565b60008060008060008060008060008060008061097161190e565b9a506001600654018b11151561098a5760009b506118fb565b60009950600098506000975060009650600096505b6009805490508767ffffffffffffffff161015610a4d576007600060098967ffffffffffffffff168154811015156109d357fe5b9060005260206000200160009054906101000a900473ffffffffffffffffffffffffffffffffffffffff1673ffffffffffffffffffffffffffffffffffffffff1673ffffffffffffffffffffffffffffffffffffffff168152602001908152602001600020600101548a019950868060010197505061099f565b600096505b600a805490508767ffffffffffffffff161015610b005760076000600a8967ffffffffffffffff16815481101515610a8657fe5b9060005260206000200160009054906101000a900473ffffffffffffffffffffffffffffffffffffffff1673ffffffffffffffffffffffffffffffffffffffff1673ffffffffffffffffffffffffffffffffffffffff16815260200190815260200160002060020154890198508680600101975050610a52565b600096505b600b805490508767ffffffffffffffff161015610bb35760076000600b8967ffffffffffffffff16815481101515610b3957fe5b9060005260206000200160009054906101000a900473ffffffffffffffffffffffffffffffffffffffff1673ffffffffffffffffffffffffffffffffffffffff1673ffffffffffffffffffffffffffffffffffffffff16815260200190815260200160002060020154880197508680600101975050610b05565b87898b030395508860035402866004540289600554020101945060008a141515610bea578985811515610be257fe5b049350610bf0565b60055493505b60018b037f0515a3f30625eb6d79e9999f668acbc2aa93733c063acaf2d98fb0a8392199e1856004546005546003546040518085815260200184815260200183815260200182815260200194505050505060405180910390a26000600c805490501415610cb6576000600460ff1660018d037ffd664a6402fc46f21f0b8e750b4512478d7377ee5bcb982474ee48281501a5f960008a6004548c0260000360405180848152602001838152602001828152602001935050505060405180910390a4610efa565b600454860260000392508260076000600c6000815481101515610cd557fe5b9060005260206000200160009054906101000a900473ffffffffffffffffffffffffffffffffffffffff1673ffffffffffffffffffffffffffffffffffffffff1673ffffffffffffffffffffffffffffffffffffffff16815260200190815260200160002060030160008282540192505081905550600c6000815481101515610d5a57fe5b9060005260206000200160009054906101000a900473ffffffffffffffffffffffffffffffffffffffff1673ffffffffffffffffffffffffffffffffffffffff16600460ff1660018d037ffd664a6402fc46f21f0b8e750b4512478d7377ee5bcb982474ee48281501a5f960076000600c6000815481101515610dd957fe5b9060005260206000200160009054906101000a900473ffffffffffffffffffffffffffffffffffffffff1673ffffffffffffffffffffffffffffffffffffffff1673ffffffffffffffffffffffffffffffffffffffff168152602001908152602001600020600101548a8860405180848152602001838152602001828152602001935050505060405180910390a4600160086000600c6000815481101515610e7d57fe5b9060005260206000200160009054906101000a900473ffffffffffffffffffffffffffffffffffffffff1673ffffffffffffffffffffffffffffffffffffffff1673ffffffffffffffffffffffffffffffffffffffff16815260200190815260200160002060006101000a81548160ff0219169083151502179055505b600096505b600b805490508767ffffffffffffffff1610156112165760076000600b8967ffffffffffffffff16815481101515610f3357fe5b9060005260206000200160009054906101000a900473ffffffffffffffffffffffffffffffffffffffff1673ffffffffffffffffffffffffffffffffffffffff1673ffffffffffffffffffffffffffffffffffffffff16815260200190815260200160002060010154915060076000600b8967ffffffffffffffff16815481101515610fbb57fe5b9060005260206000200160009054906101000a900473ffffffffffffffffffffffffffffffffffffffff1673ffffffffffffffffffffffffffffffffffffffff1673ffffffffffffffffffffffffffffffffffffffff16815260200190815260200160002060020154905080600554028285020392508260076000600b8a67ffffffffffffffff1681548110151561104f57fe5b9060005260206000200160009054906101000a900473ffffffffffffffffffffffffffffffffffffffff1673ffffffffffffffffffffffffffffffffffffffff1673ffffffffffffffffffffffffffffffffffffffff16815260200190815260200160002060030160008282540192505081905550600b8767ffffffffffffffff168154811015156110dd57fe5b9060005260206000200160009054906101000a900473ffffffffffffffffffffffffffffffffffffffff1673ffffffffffffffffffffffffffffffffffffffff16600360ff1660018d037ffd664a6402fc46f21f0b8e750b4512478d7377ee5bcb982474ee48281501a5f985858860405180848152602001838152602001828152602001935050505060405180910390a4600160086000600b8a67ffffffffffffffff1681548110151561118d57fe5b9060005260206000200160009054906101000a900473ffffffffffffffffffffffffffffffffffffffff1673ffffffffffffffffffffffffffffffffffffffff1673ffffffffffffffffffffffffffffffffffffffff16815260200190815260200160002060006101000a81548160ff0219169083151502179055508680600101975050610eff565b600096505b600a805490508767ffffffffffffffff1610156115325760076000600a8967ffffffffffffffff1681548110151561124f57fe5b9060005260206000200160009054906101000a900473ffffffffffffffffffffffffffffffffffffffff1673ffffffffffffffffffffffffffffffffffffffff1673ffffffffffffffffffffffffffffffffffffffff16815260200190815260200160002060010154915060076000600a8967ffffffffffffffff168154811015156112d757fe5b9060005260206000200160009054906101000a900473ffffffffffffffffffffffffffffffffffffffff1673ffffffffffffffffffffffffffffffffffffffff1673ffffffffffffffffffffffffffffffffffffffff16815260200190815260200160002060020154905080600354028285020392508260076000600a8a67ffffffffffffffff1681548110151561136b57fe5b9060005260206000200160009054906101000a900473ffffffffffffffffffffffffffffffffffffffff1673ffffffffffffffffffffffffffffffffffffffff1673ffffffffffffffffffffffffffffffffffffffff16815260200190815260200160002060030160008282540192505081905550600a8767ffffffffffffffff168154811015156113f957fe5b9060005260206000200160009054906101000a900473ffffffffffffffffffffffffffffffffffffffff1673ffffffffffffffffffffffffffffffffffffffff16600260ff1660018d037ffd664a6402fc46f21f0b8e750b4512478d7377ee5bcb982474ee48281501a5f985858860405180848152602001838152602001828152602001935050505060405180910390a4600160086000600a8a67ffffffffffffffff168154811015156114a957fe5b9060005260206000200160009054906101000a900473ffffffffffffffffffffffffffffffffffffffff1673ffffffffffffffffffffffffffffffffffffffff1673ffffffffffffffffffffffffffffffffffffffff16815260200190815260200160002060006101000a81548160ff021916908315150217905550868060010197505061121b565b600096505b6009805490508767ffffffffffffffff1610156118e6576007600060098967ffffffffffffffff1681548110151561156b57fe5b9060005260206000200160009054906101000a900473ffffffffffffffffffffffffffffffffffffffff1673ffffffffffffffffffffffffffffffffffffffff1673ffffffffffffffffffffffffffffffffffffffff168152602001908152602001600020600101549150600115156008600060098a67ffffffffffffffff168154811015156115f757fe5b9060005260206000200160009054906101000a900473ffffffffffffffffffffffffffffffffffffffff1673ffffffffffffffffffffffffffffffffffffffff1673ffffffffffffffffffffffffffffffffffffffff16815260200190815260200160002060009054906101000a900460ff16151514156117125760006008600060098a67ffffffffffffffff1681548110151561169157fe5b9060005260206000200160009054906101000a900473ffffffffffffffffffffffffffffffffffffffff1673ffffffffffffffffffffffffffffffffffffffff1673ffffffffffffffffffffffffffffffffffffffff16815260200190815260200160002060006101000a81548160ff0219169083151502179055506117c3565b818402925060098767ffffffffffffffff1681548110151561173057fe5b9060005260206000200160009054906101000a900473ffffffffffffffffffffffffffffffffffffffff1673ffffffffffffffffffffffffffffffffffffffff16600160ff1660018d037ffd664a6402fc46f21f0b8e750b4512478d7377ee5bcb982474ee48281501a5f98560008860405180848152602001838152602001828152602001935050505060405180910390a45b60006007600060098a67ffffffffffffffff168154811015156117e257fe5b9060005260206000200160009054906101000a900473ffffffffffffffffffffffffffffffffffffffff1673ffffffffffffffffffffffffffffffffffffffff1673ffffffffffffffffffffffffffffffffffffffff1681526020019081526020016000206002018190555060006007600060098a67ffffffffffffffff1681548110151561186d57fe5b9060005260206000200160009054906101000a900473ffffffffffffffffffffffffffffffffffffffff1673ffffffffffffffffffffffffffffffffffffffff1673ffffffffffffffffffffffffffffffffffffffff168152602001908152602001600020600101819055508680600101975050611537565b8360058190555060018b036006819055508a9b505b505050505050505050505090565b600481565b600080600254600154420381151561192257fe5b0490508091505090565b6000809054906101000a900473ffffffffffffffffffffffffffffffffffffffff1673ffffffffffffffffffffffffffffffffffffffff163373ffffffffffffffffffffffffffffffffffffffff1614156119bb576000809054906101000a900473ffffffffffffffffffffffffffffffffffffffff1673ffffffffffffffffffffffffffffffffffffffff16ff5b565b600a818154811015156119cc57fe5b906000526020600020016000915054906101000a900473ffffffffffffffffffffffffffffffffffffffff1681565b600381565b600981815481101515611a0f57fe5b906000526020600020016000915054906101000a900473ffffffffffffffffffffffffffffffffffffffff1681565b60055481565b600c81815481101515611a5357fe5b906000526020600020016000915054906101000a900473ffffffffffffffffffffffffffffffffffffffff1681565b600080600080600160065401611a9661190e565b11151515611b32576040517f08c379a00000000000000000000000000000000000000000000000000000000081526004018080602001828103825260238152602001807f7468652070726576696f757320626c6f636b20686173206265656e207365747481526020017f6c6564000000000000000000000000000000000000000000000000000000000081525060400191505060405180910390fd5b600260ff16600760003373ffffffffffffffffffffffffffffffffffffffff1673ffffffffffffffffffffffffffffffffffffffff16815260200190815260200160002060000160009054906101000a900460ff1660ff16141515611bff576040517f08c379a00000000000000000000000000000000000000000000000000000000081526004018080602001828103825260138152602001807f636f6e736974656e74206e6f646520747970650000000000000000000000000081525060200191505060405180910390fd5b84600760003373ffffffffffffffffffffffffffffffffffffffff1673ffffffffffffffffffffffffffffffffffffffff16815260200190815260200160002060020160008282540192505081905550611c5761190e565b9150600760003373ffffffffffffffffffffffffffffffffffffffff1673ffffffffffffffffffffffffffffffffffffffff1681526020019081526020016000206002015490503373ffffffffffffffffffffffffffffffffffffffff16827f93dd87282bb52c163ac2f6eceb526fa9671dfc2ebba6cedd8643a9b6f7e810bc836040518082815260200191505060405180910390a38381935093505050915091565b60025481565b600281565b6000600760003373ffffffffffffffffffffffffffffffffffffffff1673ffffffffffffffffffffffffffffffffffffffff16815260200190815260200160002060000160009054906101000a900460ff1660ff16141515611d6657600080fd5b6004600760003373ffffffffffffffffffffffffffffffffffffffff1673ffffffffffffffffffffffffffffffffffffffff16815260200190815260200160002060000160006101000a81548160ff021916908360ff16021790555060093390806001815401808255809150509060018203906000526020600020016000909192909190916101000a81548173ffffffffffffffffffffffffffffffffffffffff021916908373ffffffffffffffffffffffffffffffffffffffff16021790555050600c3390806001815401808255809150509060018203906000526020600020016000909192909190916101000a81548173ffffffffffffffffffffffffffffffffffffffff021916908373ffffffffffffffffffffffffffffffffffffffff16021790555050565b600181565b600b81815481101515611ea457fe5b906000526020600020016000915054906101000a900473ffffffffffffffffffffffffffffffffffffffff1681565b6000600760008373ffffffffffffffffffffffffffffffffffffffff1673ffffffffffffffffffffffffffffffffffffffff168152602001908152602001600020600301549050919050565b6000600654905090565b6000600760003373ffffffffffffffffffffffffffffffffffffffff1673ffffffffffffffffffffffffffffffffffffffff16815260200190815260200160002060000160009054906101000a900460ff1660ff16141515611f8a57600080fd5b6002600760003373ffffffffffffffffffffffffffffffffffffffff1673ffffffffffffffffffffffffffffffffffffffff16815260200190815260200160002060000160006101000a81548160ff021916908360ff16021790555060093390806001815401808255809150509060018203906000526020600020016000909192909190916101000a81548173ffffffffffffffffffffffffffffffffffffffff021916908373ffffffffffffffffffffffffffffffffffffffff16021790555050600a3390806001815401808255809150509060018203906000526020600020016000909192909190916101000a81548173ffffffffffffffffffffffffffffffffffffffff021916908373ffffffffffffffffffffffffffffffffffffffff16021790555050565b60045481565b60065481565b6000806000806001600654016120d461190e565b11151515612170576040517f08c379a00000000000000000000000000000000000000000000000000000000081526004018080602001828103825260238152602001807f7468652070726576696f757320626c6f636b20686173206265656e207365747481526020017f6c6564000000000000000000000000000000000000000000000000000000000081525060400191505060405180910390fd5b600360ff16600760003373ffffffffffffffffffffffffffffffffffffffff1673ffffffffffffffffffffffffffffffffffffffff16815260200190815260200160002060000160009054906101000a900460ff1660ff1614151561223d576040517f08c379a00000000000000000000000000000000000000000000000000000000081526004018080602001828103825260138152602001807f636f6e736974656e74206e6f646520747970650000000000000000000000000081525060200191505060405180910390fd5b84600760003373ffffffffffffffffffffffffffffffffffffffff1673ffffffffffffffffffffffffffffffffffffffff1681526020019081526020016000206002016000828254019250508190555061229561190e565b9150600760003373ffffffffffffffffffffffffffffffffffffffff1673ffffffffffffffffffffffffffffffffffffffff1681526020019081526020016000206002015490503373ffffffffffffffffffffffffffffffffffffffff16827f91c6177ffc7594c9cda9df7aea42e157fdbdfd48d9ef1f9a19f0f2c69c66a250836040518082815260200191505060405180910390a38381935093505050915091565b60008060008060016006540161234c61190e565b111515156123e8576040517f08c379a00000000000000000000000000000000000000000000000000000000081526004018080602001828103825260238152602001807f7468652070726576696f757320626c6f636b20686173206265656e207365747481526020017f6c6564000000000000000000000000000000000000000000000000000000000081525060400191505060405180910390fd5b6000600760003373ffffffffffffffffffffffffffffffffffffffff1673ffffffffffffffffffffffffffffffffffffffff16815260200190815260200160002060000160009054906101000a900460ff1660ff16141515156124b3576040517f08c379a000000000000000000000000000000000000000000000000000000000815260040180806020018281038252601f8152602001807f616e792072656769737465726564206e6f64652063616e20636f6e73756d650081525060200191505060405180910390fd5b84600760003373ffffffffffffffffffffffffffffffffffffffff1673ffffffffffffffffffffffffffffffffffffffff1681526020019081526020016000206001016000828254019250508190555061250b61190e565b9150600760003373ffffffffffffffffffffffffffffffffffffffff1673ffffffffffffffffffffffffffffffffffffffff1681526020019081526020016000206001015490503373ffffffffffffffffffffffffffffffffffffffff16827f8f431353846ba7f082432bbf0d1f8fc7262b737d03af4ba9a42e748163602aef836040518082815260200191505060405180910390a38181935093505050915091565b6000806000806001600654016125c261190e565b1115151561265e576040517f08c379a00000000000000000000000000000000000000000000000000000000081526004018080602001828103825260238152602001807f7468652070726576696f757320626c6f636b20686173206265656e207365747481526020017f6c6564000000000000000000000000000000000000000000000000000000000081525060400191505060405180910390fd5b600460ff16600760003373ffffffffffffffffffffffffffffffffffffffff1673ffffffffffffffffffffffffffffffffffffffff16815260200190815260200160002060000160009054906101000a900460ff1660ff1614151561272b576040517f08c379a00000000000000000000000000000000000000000000000000000000081526004018080602001828103825260138152602001807f636f6e736974656e74206e6f646520747970650000000000000000000000000081525060200191505060405180910390fd5b84600760003373ffffffffffffffffffffffffffffffffffffffff1673ffffffffffffffffffffffffffffffffffffffff1681526020019081526020016000206002016000828254019250508190555061278361190e565b9150600760003373ffffffffffffffffffffffffffffffffffffffff1673ffffffffffffffffffffffffffffffffffffffff1681526020019081526020016000206002015490503373ffffffffffffffffffffffffffffffffffffffff16827ff7d5924849317d56fc298770392a6453b65a6d8a3e6e2b4e4cc61bf5eb930649836040518082815260200191505060405180910390a38381935093505050915091565b6000600760003373ffffffffffffffffffffffffffffffffffffffff1673ffffffffffffffffffffffffffffffffffffffff16815260200190815260200160002060000160009054906101000a900460ff1660ff1614151561288757600080fd5b6001600760003373ffffffffffffffffffffffffffffffffffffffff1673ffffffffffffffffffffffffffffffffffffffff16815260200190815260200160002060000160006101000a81548160ff021916908360ff16021790555060093390806001815401808255809150509060018203906000526020600020016000909192909190916101000a81548173ffffffffffffffffffffffffffffffffffffffff021916908373ffffffffffffffffffffffffffffffffffffffff16021790555050565b60076020528060005260406000206000915090508060000160009054906101000a900460ff16908060010154908060020154908060030154905084565b600354815600a165627a7a723058202196ac6dbce12822eee31c7102168d648e9073fa08e85aa504858932873be60a0029",
  "source": "pragma solidity ^0.4.23;\n\n\ncontract Mortal {\n    /* Define variable owner of the type address */\n    address owner;\n\n    /* This function is executed at initialization and sets the owner of the contract */\n    function Mortal() public { owner = msg.sender; }\n\n    /* Function to recover the funds on the contract */\n    function kill() public { if (msg.sender == owner) selfdestruct(owner); }\n}\n\n\ncontract Fogchain_2 is Mortal {\n    struct Account{\n        uint8 role;\n        // amount of electricity consumption, in Joul\n        uint consumption;\n        // amount of output by prosumer or battery station or power station, in Joul\n        uint output;\n        // unpaid expense, negative denotes income\n        int bill;\n    }\n\n    // CONSUMER denotes the registration status, \n    // other roles are regarded as special consumers\n    uint8 constant public CONSUMER = 1;\n    uint8 constant public PROSUMER = 2;\n    // battery station\n    uint8 constant public RETAILER = 3;\n    /* POWER_STATION is not used since we assume the electricity generation\n     * of power station can be derived from the difference between consumption and\n     * prosumer production.  \n     */\n    uint8 constant public POWER_STATION = 4;\n\n    // the starting time of the system, for calculating sequence block number\n    uint public TIME_START;\n    // the interval of a sequence block \n    uint public SEQUENCE_INV;\n    // the renewable electricity price for prosumer output\n    uint public RENEWABLE_PRICE;\n    // the unrenewable electricity price for power station output\n    uint public UNRENEWABLE_PRICE;\n    // the price settled by the last settlement\n    uint public latest_price;\n    // the latest sequence block number settled \n    uint public last_settlement;\n\n    mapping(address => Account) public account_map;\n    // mapping of the event-emitted account address, to avoid duplicated event\n    mapping(address => bool) logged_map;\n    address[] public consumer_addrs;\n    address[] public prosumer_addrs;\n    address[] public retailer_addrs;\n    address[] public power_station_addrs;\n\n    event ConsEvent(uint indexed seqnum, address indexed cons_addr, uint cons);\n    event ProdEvent(uint indexed seqnum, address indexed prod_addr, uint prod);\n    event SellEvent(uint indexed seqnum, address indexed sell_addr, uint sold);\n    event SettleEvent(uint indexed seqnum, uint indexed role, address indexed account_addr, uint consumption, uint output,  int expense);\n    event PsGenEvent(uint indexed seqnum, address indexed ps_addr, uint generation);\n    event PriceEvent(uint indexed seqnum, uint c_price, uint ps_price, uint bs_price, uint p_price);\n\n    function Fogchain_2(uint seq_blk_interval, uint renew_price, uint unre_price) public {\n        SEQUENCE_INV = seq_blk_interval;\n        TIME_START = now;\n        RENEWABLE_PRICE = renew_price;\n        UNRENEWABLE_PRICE = unre_price;\n        latest_price = (RENEWABLE_PRICE+UNRENEWABLE_PRICE)/2;\n        last_settlement = 0;\n    }\n\n    // TODO: this modifier may incur undesirable gas cost due to settlement\n    // make sure the previous sequence block is settled\n    modifier only_completed_prev_seq(){\n        /// TODO: due to the ganache event log filter bug, disable functions with \n        /// this modifier to call settle() (e.g. consumer, prosumer), such that the \n        /// monitor(power station) does not need a filter\n        // if(get_current_seqnum() > (last_settlement+1)){\n        //     settle();\n        // }\n        \n        require(get_current_seqnum() <= last_settlement+1, \"the previous block has been settled\");\n        _;\n    }\n\n    modifier not_registered(){\n        require(account_map[msg.sender].role == 0);\n        _;\n    }\n\n    /// get current sequence block number\n    function get_current_seqnum() constant public  \n        returns (uint seqnum) \n    {\n        uint cur_seqnum = (now - TIME_START)/SEQUENCE_INV;\n        return (cur_seqnum);\n    }\n\n    /// get last settlement sequence block number\n    function get_last_settlement() constant public\n        returns (uint seqnum)\n    {\n        return (last_settlement);\n    }\n\n    function get_bill(address account) constant public\n        returns (int expense)\n    {\n        return account_map[account].bill;\n    }\n\n    function register_consumer() public not_registered{\n        account_map[msg.sender].role = CONSUMER;\n        consumer_addrs.push(msg.sender);\n    }\n\n    function register_prosumer() public  not_registered{\n        account_map[msg.sender].role = PROSUMER;\n        consumer_addrs.push(msg.sender);\n        prosumer_addrs.push(msg.sender);\n    }\n\n    function register_battery_station() public not_registered{\n        account_map[msg.sender].role = RETAILER;\n        consumer_addrs.push(msg.sender);\n        retailer_addrs.push(msg.sender);\n    }\n\n    function register_power_station() public not_registered{\n        account_map[msg.sender].role = POWER_STATION;\n        consumer_addrs.push(msg.sender);\n        power_station_addrs.push(msg.sender);\n    }\n\n    /// post consumption, assumption: any role can post_cons\n    function post_cons(uint amount) public only_completed_prev_seq\n        returns (uint seqnum, uint cons) \n    {   \n        require(account_map[msg.sender].role != 0, \"any registered node can consume\");\n        \n        account_map[msg.sender].consumption += amount;\n\n        uint cur_seqnum = get_current_seqnum();\n        uint consumption = account_map[msg.sender].consumption;\n\n        emit ConsEvent(cur_seqnum, msg.sender, consumption);\n        return (cur_seqnum, consumption);\n    }\n\n    /// post production, assumption: only prosumer can post_cons\n    function post_prod(uint amount) public only_completed_prev_seq\n        returns (uint seqnum, uint prod)\n    {   \n        require(account_map[msg.sender].role == PROSUMER, \"consitent node type\");\n\n        account_map[msg.sender].output += amount;\n\n        uint cur_seqnum = get_current_seqnum();\n        uint production = account_map[msg.sender].output;\n\n        emit ProdEvent(cur_seqnum, msg.sender, production);\n        return (seqnum, production);\n    }\n\n    /// post sale, assumption: only retailer(battery station) can post_sell\n    function post_sell(uint amount) public only_completed_prev_seq\n        returns (uint seqnum, uint sold)\n    {\n        require(account_map[msg.sender].role == RETAILER, \"consitent node type\");\n\n        account_map[msg.sender].output += amount;\n\n        uint cur_seqnum = get_current_seqnum();\n        uint cur_sold = account_map[msg.sender].output;\n\n        emit SellEvent(cur_seqnum, msg.sender, cur_sold);\n        return (seqnum, cur_sold);\n    }\n\n    /// post power station generation, assumption: only power station can post_ps_gen\n    function post_ps_gen(uint amount) public only_completed_prev_seq\n        returns (uint seqnum, uint generation)\n    {\n        require(account_map[msg.sender].role == POWER_STATION, \"consitent node type\");\n\n        account_map[msg.sender].output += amount;\n\n        uint cur_seqnum = get_current_seqnum();\n        uint cur_generation = account_map[msg.sender].output;\n\n        emit PsGenEvent(cur_seqnum, msg.sender, cur_generation);\n        return (seqnum, cur_generation);\n    }\n\n    /// settle the previous sequence block\n    function settle() public returns (uint seqnum){\n        uint cur_seqnum = get_current_seqnum();\n        // return 0 if still in the sequence block next to the last_settlement\n        if(cur_seqnum <= last_settlement+1){\n            return 0;\n        }\n\n        uint cons_sum = 0;\n        uint prod_sum = 0;\n        uint bs_sum = 0;\n        uint64 i = 0;\n\n        // consumer_addrs contains all the registered account addresses\n        for (i=0; i<consumer_addrs.length; i++){\n            cons_sum += account_map[consumer_addrs[i]].consumption;\n        }\n\n        for (i=0; i<prosumer_addrs.length; i++){\n            prod_sum += account_map[prosumer_addrs[i]].output;\n        }\n\n        for (i=0; i<retailer_addrs.length; i++){\n            bs_sum += account_map[retailer_addrs[i]].output;\n        }\n\n        // TODO: the power station account is not used here, assuming power station does not consume electricity\n\n        /* TODO BEGIN: \n         * the electricity generation is currently derived from the consumption data.\n         * the derived electricity generation is all asigned to the first registered power station\n         */\n        uint ps_sum = cons_sum - prod_sum - bs_sum;\n        uint revenue_sum = (latest_price*bs_sum)\n                                +(UNRENEWABLE_PRICE*ps_sum)\n                                +(RENEWABLE_PRICE*prod_sum);\n\n        uint c_price;\n        if(cons_sum != 0){\n            c_price = revenue_sum/cons_sum;\n        }\n        else{\n            c_price = latest_price;\n        }\n        emit PriceEvent(cur_seqnum-1, c_price, UNRENEWABLE_PRICE, latest_price, RENEWABLE_PRICE);\n        int expense;\n        uint consumption;\n        uint output;\n\n        // emit event for power station\n        if(power_station_addrs.length == 0){\n            emit SettleEvent(cur_seqnum-1, POWER_STATION, 0x0, 0, ps_sum, -int(ps_sum*UNRENEWABLE_PRICE));\n        }\n        else{\n            expense = -int(ps_sum*UNRENEWABLE_PRICE);\n            account_map[power_station_addrs[0]].bill += expense;\n            emit SettleEvent(cur_seqnum-1, POWER_STATION, power_station_addrs[0], \n                account_map[power_station_addrs[0]].consumption, ps_sum, expense);\n            logged_map[power_station_addrs[0]] = true;\n        }\n        /* TODO END */\n\n        // emit event for battery stations\n        for (i=0; i<retailer_addrs.length; i++){\n            consumption = account_map[retailer_addrs[i]].consumption;\n            output = account_map[retailer_addrs[i]].output;\n            expense = int(c_price*consumption)\n                        - int(latest_price*output);\n            account_map[retailer_addrs[i]].bill += expense;\n            emit SettleEvent(cur_seqnum-1, RETAILER, retailer_addrs[i], consumption, output, expense);\n            logged_map[retailer_addrs[i]] = true;\n        }\n\n        // emit event for prosumers\n        for (i=0; i<prosumer_addrs.length; i++){\n            consumption = account_map[prosumer_addrs[i]].consumption;\n            output = account_map[prosumer_addrs[i]].output;\n            expense = int(c_price*consumption)\n                        - int(RENEWABLE_PRICE*output);\n            account_map[prosumer_addrs[i]].bill += expense;\n            emit SettleEvent(cur_seqnum-1, PROSUMER, prosumer_addrs[i], consumption, output, expense);\n            logged_map[prosumer_addrs[i]] = true;\n        }\n\n        // emit event for consumers who are not battery stations, prosumers or power stations\n        // and clear all the logged record and data accumulation\n        for (i=0; i<consumer_addrs.length; i++){\n            // power station, or prosumer or battery station\n            consumption = account_map[consumer_addrs[i]].consumption;\n            if(logged_map[consumer_addrs[i]] == true){\n                logged_map[consumer_addrs[i]] = false;\n            }\n            // pure consumer\n            else{\n                expense = int(c_price*consumption);\n                emit SettleEvent(cur_seqnum-1, CONSUMER, consumer_addrs[i], consumption, 0, expense);\n            }\n            account_map[consumer_addrs[i]].output = 0;\n            account_map[consumer_addrs[i]].consumption = 0;\n        }\n        \n        latest_price = c_price;\n        last_settlement = cur_seqnum - 1;\n        return cur_seqnum;\n    }\n}\n",
  "sourcePath": "/home/kanglong/FogChain/smart-contract/contracts/Fogchain_2.sol",
  "compiler": {
    "name": "solc",
    "version": "0.4.23+commit.124ca40d.Emscripten.clang"
  },
  "schemaVersion": "2.0.0",
  "updatedAt": "2018-05-17T14:02:09.309Z"
}